:0800000018C0FECFFDCFFCCFBC
:10000800FBCFFACFF9CFF8CFF7CFF6CFF5CFF4CFB4
:10001800F3CFF2CFF1CFF0CFEFCFEECFEDCF01009E
:1000280000000400600126000000F894EE27ECBBF5
:10003800F1E0FBBFEBBFE5BFF8E1F1BDE1BD8DE04D
:10004800A2E0BB27ED938A95E9F780E094E0A0E66B
:10005800ED930197E9F7EAE2F0E085919591009731
:1000680061F0A591B59105901590BF01F00105903B
:100078000D920197E1F7FB01F0CFEFE5EDBFE4E06A
:10008800EEBFC0E6D1E0FBC36BDA6DDA11C077DAF8
:100098006ADA0EC077DA67DA0BC077DA64DA08C092
:1000A80077DA61DA05C077DA5EDA02C077DA5BDA26
:1000B8002496089576DA7CDA82DA88DA72DA85C0EC
:1000C80070DA84DA7CDA74DA6CDA7FC06ADA70DAC9
:1000D80076DA7CDA66DA7ADA72DA6ADA7EDA75C0C1
:1000E8007FDA3EDA84DA4BDA82DA4CDA80DA78DAE6
:1000F8006CC076DA47DA7BDA42DA79DA31DA77DA3B
:100108006FDA63C06DDA2CDA72DA39DA70DA3ADA71
:100118006EDA66DA37DA6BDA32DA69DA21DA67DA6E
:100128005FDA53C03EDA44DAE9E066DA67DA58DAC9
:100138004CC037DA4BDAE3E05FDA60DA32DA45C02E
:1001480030DA36DAE9E058DA59DA2BDA3FDAE3E07E
:1001580053DA54DA26DA39C043DA02DA48DA15DA39
:1001680046DA1CDA44DA3CDA30C03ADA0BDA3FDA3B
:100178000FDA3DDA13DA3BDA33DA27C031DAF0D9AD
:1001880036DA03DA34DA0ADA32DA2ADAFBD92FDA9B
:10019800FFD92DDA03DA2BDA23DA17C021DAEFD9FF
:1001A80026DAF9D924DAFAD922DAF5D920DAE7D920
:1001B8001EDA16DAE4D91BDAEED919DAEFD917DA2A
:1001C800EAD915DADCD913DA0BDA2296089518DAA7
:1001D80023DA24F426DA28DA2EDAFACF6EC010DA17
:1001E8001BDA24F42BDA20DA26DAFACF66C008DA2A
:1001F80013DA24F416DA25DA1EDAFACF5EC000DA4A
:100208000BDA24F41BDA1DDA16DAFACF56C020DA34
:1002180003DA24F406DA26DA0EDAFACF4EC018DA50
:10022800FBD924F40BDA1EDA06DAFACF46C0E8D98D
:10023800F3D934F4F6D93BBD2ABD03DAFCD9F8CF9B
:100248003CC0DED9E9D92CF4F9D913DAFAD9F3D9B3
:10025800F9CF33C011DAE0D924F4E3D91BDAEBD9AA
:10026800FACF2BC009DAD8D924F4E8D913DAE3D9BC
:10027800FACF23C001DAD0D92CF4D3D9FAD9F2D9DC
:10028800DAD9F9CF1AC0F8D9C7D92CF4D7D9F1D906
:10029800E9D9D1D9F9CF11C0EFD9BED92CF4C1D938
:1002A800E8D9F8D9C8D9F9CF08C0E6D9B5D92CF416
:1002B800C5D9DFD9EFD9BFD9F9CFB5DB26960895CF
:1002C800ECD9AAD94CF4EFD9F1D924F049D9F3D90A
:1002D800A8D9FACFB0D9F5CF72C2A0DBF8D9FAD92C
:1002E8004CF0E1D9E3D924F03BD9E5D99AD9FACF32
:1002F800F5D9F5CF64C2D1D98FD94CF4D4D9D6D990
:1003080024F03DD9D8D98DD9FACF95D9F5CF57C290
:10031800E8D9E0D94CF0C7D9C9D924F030D9CBD91C
:1003280080D9FACFDBD9F5CF4AC2B7D975D94CF401
:10033800BAD9BCD924F026D9BED973D9FACF7BD97A
:10034800F5CF3DC2CED9C6D94CF0ADD9AFD924F03E
:1003580019D9B1D966D9FACFC1D9F5CF30C29DD94B
:100368005BD94CF4A0D9A2D924F00FD9A4D959D972
:10037800FACF61D9F5CF23C2B4D9ACD94CF093D90F
:1003880095D924F002D997D94CD9FACFA7D9F5CF66
:1003980016C283D941D94CF486D988D924F0FBD820
:1003A8008AD93FD9FACF47D9F5CF09C29AD992D974
:1003B8004CF079D97BD924F0EED87DD932D9FACF4F
:1003C8008DD9F5CFFCC169D927D94CF46CD96ED930
:1003D80024F0DED870D925D9FACF2DD9F5CFEFC1C1
:1003E80080D978D94CF05FD961D924F0D1D863D9B4
:1003F80018D9FACF73D9F5CFE2C14FD90DD94CF43A
:1004080052D954D924F0CAD856D90BD9FACF13D90E
:10041800F5CFD5C166D95ED94CF045D947D924F076
:10042800BDD849D9FED8FACF59D9F5CFC8C15DD9B9
:1004380060D92CF063D962D927DEFDD8F9CF63D90A
:1004480058D92CF05BD95AD922DEF5D8F9CF5BD927
:1004580050D92CF053D952D91DDEEDD8F9CF21C08F
:1004680044D947D92CF04AD949D917DEE4D8F9CF6D
:100478004AD93FD92CF042D941D912DEDCD8F9CF7C
:1004880042D937D92CF03AD939D90DDED4D8F9CF99
:1004980008C02BD92ED92CF031D930D907DECBD8CA
:1004A800F9CFC3DA2896089520D930D934F033D952
:1004B80007DE31D9FFDDBFD8F8CFDEC116D926D97E
:1004C80034F029D916DE27D90BDEB5D8F8CFD4C138
:1004D8000CD91CD924F01FD9F3DDADD8FACFCCC183
:1004E80004D914D924F017D9E5DDA5D8FACFC4C1A9
:1004F800FCD80CD924F00FD9FCDD9DD8FACFBCC1AB
:10050800F4D804D924F007D9EBDD95D8FACFB4C1D3
:10051800ECD8FCD834F0FFD80CDEFDD803DE8BD83D
:10052800F8CFAAC1E2D8F2D834F0F5D81EDEF3D855
:1005380013DE81D8F8CFA0C1D8D8E8D824F0EBD8FA
:10054800F8DD79D8FACF98C1D0D8E0D824F0E3D82C
:10055800E9DD71D8FACF90C1C8D8D8D824F0DBD853
:1005680004DE69D8FACF88C1C0D8D0D824F0D3D84F
:10057800F3DD61D8FACF80C1B8D8C8D824F0CBD879
:10058800A5DD59D8FACF78C1B0D8C0D824F0C3D8DF
:10059800B9DD51D8FACF70C1A8D8B8D824F0BBD8E3
:1005A800CFDD49D8FACF68C1A0D8B0D824F0B3D8E5
:1005B800E5DD41D8FACF60C198D8A8D824F0ABD8E7
:1005C800EDDD39D8FACF58C190D8A0D884F1E0E051
:1005D800E8BBA1D8BFD9C4D79ED8BCD9D0D79BD89F
:1005E800B9D9D3D798D8B6D9CDD795D8B3D9D3D781
:1005F80092D8B0D9CDD78FD8ADD9D0D78CD8AAD9E1
:10060800C7D789D8A7D9C7D786D8A4D9BBD783D8FD
:10061800A1D9BBD780D89ED9B2D77DD89BD9A0D72E
:100628007AD898D97DD877D895D905D8CECF24C18E
:1006380072D871D845DE6FD86ED85DDE6CD86BD8AD
:1006480074DE69D868D849DE66D865D861DE63D8B3
:1006580062D878DE25C05FD85ED881DE5CD85BD8EA
:100668008BDE59D858D8AFDE56D855D8B9DE53D80E
:1006780052D89CDE50D84FD88CDE12C04CD84BD8FC
:10068800BCDE49D848D8C6DE46D845D8B6DE43D8F9
:1006980042D8C0DE40D83FD8B0DE3DD83CD8BADE1C
:1006A8002496089540D813D815D844F0FCD7FED71F
:1006B8001CF03DD8B6D7FBCF11D8F6CF24D8ACD78D
:1006C80044F4F1D7F3D71CF032D8ABD7FBCFB3D76C
:1006D800F6CF83D7FCD7FED744F0E5D7E7D71CF091
:1006E80032D89FD7FBCFFAD7F6CF0DD895D744F499
:1006F800DAD7DCD71CF027D894D7FBCF9CD7F6CF16
:100708006CD7E5D7E7D744F0CED7D0D71CF027D899
:1007180088D7FBCFE3D7F6CFF6D77ED744F4C3D735
:10072800C5D71CF01CD87DD7FBCF85D7F6CFF8D717
:1007380046C0F9D7CCD7CED744F0B5D7B7D71CF039
:100748001AD86FD7FBCFCAD7F6CFDDD765D744F411
:10075800AAD7ACD71CF00FD864D7FBCF6CD7F6CF8D
:100768003CD7B5D7B7D744F09ED7A0D71CF011D83F
:1007780058D7FBCFB3D7F6CFC6D74ED744F493D7C5
:1007880095D71CF006D84DD7FBCF55D7F6CF25D730
:100798009ED7A0D744F087D789D71CF008D841D76F
:1007A800FBCF9CD7F6CFAFD737D744F47CD77ED7CB
:1007B8001CF0FDD736D7FBCF3ED7F6CFB1D733D90C
:1007C8002896089502D8A2D784F0A5D702D803D8CE
:1007D80004D805D806D823DD9ED7FFD700D8F9D787
:1007E800FAD7FFD71CDD27D7EECF46C0EED78ED776
:1007F8005CF091D7F2D747DD8ED7EBD733DD8BD7B7
:10080800F0D71FDD18D7F3CF37C0DFD77FD784F0F5
:1008180082D7E7D7E2D7DDD702DD7DD7E0D7DBD7B0
:10082800E0D7DBD7D6D7D7D7DAD7F9DC04D7EECFDE
:1008380023C0CBD76BD774F06ED7F9DC6CD701DD4A
:100848006AD708DD68D70EDD66D714DD64D71BDDEF
:10085800F2D6F0CF11C0B9D759D774F05CD71CDDE8
:100868005AD723DD58D718DD56D71FDD54D714DDE6
:1008780052D71BDDE0D6F0CFD8D82696089550D7AA
:10088800EFEFE7BBE0E0E5BBE4BBE2BBE1BBE3BF06
:10089800E2BFA9D7EDBDE0E0ECBDE7BDE6BDEBBD2D
:1008A800EABDE9BDE8BDE2BDE5BDE4BDE3BDE5BF28
:1008B800E9BFE0E8E8B9E0E0E0BF9D990AC09C998B
:1008C80008C09B9906C09A9904C0999902C0989B40
:1008D80001C0B3C08CD792D7E1F493D7D1F494D7A1
:1008E800C1F495D7B1F496D7A1F497D791F498D7D6
:1008F80081F499D771F49AD761F49BD751F49CD7B6
:1009080041F49DD731F49ED721F49FD711F4E0E04C
:1009180001C0E1E09DD709F490C069D79ED731F4B2
:10092800A1D7A5D7A4D7A3D7A7D764C0AED731F48A
:1009380099D7AFD7AED7ADD7B1D75CC0B8D731F458
:1009480091D795D794D793D797D754C0B4D731F4C4
:1009580089D79FD79ED79DD7A1D74CC0B0D731F4A0
:1009680081D785D784D783D787D744C0ACD731F40C
:1009780079D78FD78ED78DD791D73CC0E533A0E0F4
:10098800FA0731F46FD773D772D771D775D732C0DA
:10099800EA35A0E0FA0731F465D77BD77AD779D75B
:1009A8007DD728C094D721F45DD761D70DDE22C04A
:1009B800E231A0E0FA0729F455D759D758D71BD503
:1009C80019C089D721F44ED752D72ED513C0E0329B
:1009D800A0E0FA0721F446D74AD761D50BC07FD7E4
:1009E80019F440D780D706C0EB35A0E0FA0711F418
:1009F80039D77ED703D7E1F404D7D1F405D7C1F4AA
:100A080006D7B1F407D7A1F408D791F409D781F430
:100A18000AD771F40BD761F40CD751F40DD741F410
:100A28000ED731F40FD721F410D711F4E0E001C04C
:100A3800E1E00ED711F4442455249D9B0AC09C9BE9
:100A480008C09B9B06C09A9B04C0999B02C09899BA
:100A580001C0B7C0CCD6D2D6E1F4D3D6D1F4D4D61F
:100A6800C1F4D5D6B1F4D6D6A1F4D7D691F4D8D658
:100A780081F4D9D671F4DAD661F4DBD651F4DCD638
:100A880041F4DDD631F4DED621F4DFD611F4E0E00E
:100A980001C0E1E0DDD609F493C0A9D6DED631F471
:100AA800E1D6E5D6E4D6E3D6E7D667C0EED631F48C
:100AB800D9D6EFD6EED6EDD6F1D65FC0F8D631F45A
:100AC800D1D6D5D6D4D6D3D6D7D657C0F4D631F4C6
:100AD800C9D6DFD6DED6DDD6E1D64FC0F0D631F4A2
:100AE800C1D6C5D6C4D6C3D6C7D647C0ECD631F40E
:100AF800B9D6CFD6CED6CDD6D1D63FC0E533A0E035
:100B0800FA0731F4AFD6B3D6B2D6B1D6B5D635C01A
:100B1800EA35A0E0FA0731F4A5D6BBD6BAD6B9D6DD
:100B2800BDD62BC0D4D621F4E8D6A1D64DDD25C03C
:100B3800E231A0E0FA0729F4E0D6E4D6E3D65BD4A4
:100B48001CC0C9D621F4D9D6DDD66ED416C0E03281
:100B5800A0E0FA0721F4D1D6D5D6A1D40EC0BFD6CD
:100B680031F480D6E6E4F0E0D2D6A4D406C0EB3562
:100B7800A0E0FA0711F476D6BBD640D6E1F441D608
:100B8800D1F442D6C1F443D6B1F444D6A1F445D643
:100B980091F446D681F447D671F448D661F449D623
:100BA80051F44AD641F44BD631F44CD621F44DD603
:100BB80011F4E0E001C0E1E04BD611F444245524DF
:100BC8006FC29D990AC09C9908C09B9906C09A99C2
:100BD80004C0999902C0989901C005C043D647D668
:100BE80046D609D45DC29D990AC09C9908C09B99B4
:100BF80006C09A9904C0999B02C0989B01C004C082
:100C080031D635D611D44CC29D990AC09C9908C0DA
:100C18009B9906C09A9904C0999B02C0989901C0F3
:100C280004C020D624D63BD43BC29D990AC09C99C7
:100C380008C09B9906C09A9B04C0999902C0989BCA
:100C480001C003C00FD64FD62BC29D990AC09C99EC
:100C580008C09B9906C09A9B04C0999902C09899AC
:100C680001C003C0FFD544D61BC29D990AC09C99F8
:100C780008C09B9906C09A9B04C0999B02C0989B88
:100C880001C004C0EFD546D60FDC0AC29D990AC040
:100C98009C9908C09B9906C09A9B04C0999B02C066
:100CA800989901C004C0DED535D608DCF9C19D99F4
:100CB8000AC09C9908C09B9B06C09A9904C0999940
:100CC80002C0989B01C004C0CDD524D601DCE8C180
:100CD8009D990AC09C9908C09B9B06C09A9904C01C
:100CE800999902C0989901C004C0BCD513D6F8DB05
:100CF800D7C19D990AC09C9908C09B9B06C09A9928
:100D080004C0999B02C0989B01C004C0ABD502D611
:100D1800EFDBC6C19D990AC09C9908C09B9B06C081
:100D28009A9904C0999B02C0989901C004C09AD5A9
:100D3800F1D5E6DBB5C19D990AC09C9908C09B9B7B
:100D480006C09A9B04C0999902C0989B01C004C030
:100D580089D5E0D5DDDBA4C19D990AC09C9908C05E
:100D68009B9B06C09A9B04C0999902C0989901C0A0
:100D780004C078D5CFD5D6DB93C19D990AC09C997C
:100D880008C09B9B06C09A9B04C0999B02C0989B75
:100D980001C004C067D5BED5CFDB82C19D990AC00A
:100DA8009C9908C09B9B06C09A9B04C0999B02C053
:100DB800989901C004C056D5ADD5C6DB71C19D99BF
:100DC8000AC09C9B08C09B9906C09A9904C099992F
:100DD80002C0989B01C004C045D59CD5BDDB60C14D
:100DE8009D990AC09C9B08C09B9906C09A9904C00B
:100DF800999902C0989901C004C034D58BD5B4DB49
:100E08004FC19D990AC09C9B08C09B9906C09A999E
:100E180004C0999B02C0989B01C004C023D57AD511
:100E2800ABDB3EC19D990AC09C9B08C09B9906C03C
:100E38009A9904C0999B02C0989901C004C012D520
:100E480069D5A2DB2DC19D990AC09C9B08C09B99BE
:100E580006C09A9B04C0999902C0989B01C004C01F
:100E680001D558D599DB1CC19D990AC09C9B08C027
:100E78009B9906C09A9B04C0999902C0989901C091
:100E880004C0F0D447D590DB0BC19D990AC09C9B48
:100E980008C09B9906C09A9B04C0999B02C0989B66
:100EA80001C004C0DFD436D587DBFAC09D990AC0DB
:100EB8009C9B08C09B9906C09A9B04C0999B02C042
:100EC800989901C004C0CED425D57EDBE9C09D9990
:100ED8000AC09C9B08C09B9B06C09A9904C099991C
:100EE80002C0989B01C005C0BDD414D513D59FDAA4
:100EF800D7C09D990AC09C9B08C09B9B06C09A9925
:100F080004C0999902C0989901C005C0ABD402D514
:100F180001D5A6DAC5C09D990AC09C9B08C09B9BB9
:100F280006C09A9904C0999B02C0989B01C005C04D
:100F380099D4F0D4EFD4ADDAB3C09D990AC09C9B84
:100F480008C09B9B06C09A9904C0999B02C09899B7
:100F580001C006C087D4E1D435DC45D4E5BDA0C0C6
:100F68009D990AC09C9B08C09B9B06C09A9B04C085
:100F7800999902C0989B01C006C074D4CED436DCBF
:100F880032D4E5BD8DC09D990AC09C9B08C09B9B2F
:100F980006C09A9B04C0999902C0989901C006C0DE
:100FA80061D4BBD432DC1FD4E5BD7AC09D990AC098
:100FB8009C9B08C09B9B06C09A9B04C0999B02C03F
:100FC800989B01C006C04ED4A8D433DC0CD4E5BD30
:100FD80067C09D990AC09C9B08C09B9B06C09A9BB2
:100FE80004C0999B02C0989901C006C03BD495D40F
:100FF80032DCF9D3E5BD54C09D9B0AC09C9908C05A
:101008009B9906C09A9904C0999902C0989B01C0FF
:1010180004C028D485D40CDB43C09D9B0AC09C998E
:1010280008C09B9906C09A9904C0999902C0989BD8
:1010380001C004C017D474D40EDB32C09D9B0AC013
:101048009C9908C09B9906C09A9904C0999B02C0B4
:10105800989B01C004C006D463D410DB21C09D9BBB
:101068000AC09C9908C09B9906C09A9904C0999B8C
:1010780002C0989901C004C0F5D352D413DB10C044
:101088009D9B0AC09C9908C09B9906C09A9B04C066
:10109800999902C0989B01C003C0E4D341D449DBAD
:1010A8000CCCFFCFA4D3AAD309F05BC0E7E1E030B2
:1010B80009F057C0A6D309F054C0A9D309F051C00C
:1010C800A3D309F04EC0E3E4E03009F04AC0EDE4F0
:1010D800E03009F046C0E4E5E03009F042C0EEE552
:1010E800E03009F03EC096D309F03BC0A5D3C9F55E
:1010F800ECE2E030B1F5EEE0E03099F5E8E1E0301F
:1011080081F5E6E3E03069F5E9E4E03051F59AD39A
:1011180041F5E3E0E03029F5E1E2E03011F5EDE5F5
:10112800E030F9F4E5E0E030E1F4E9E1E030C9F479
:10113800EDE2E030B1F47AD3A1F4EFE5E03089F4E0
:10114800E8E0E03071F4ECE1E03059F4E0E3E0305D
:1011580041F4EEE4E03029F4E2E6E03011F4E0E0B6
:1011680001C0E1E075D309F444C141D376D319F441
:10117800DAD39AD9DBC0A7D319F4D5D39FD9D6C06F
:10118800E731A0E0FA0719F4CED3A2D9CFC07DD3B6
:1011980019F4C9D3A5D9CAC08ED319F4C4D3A8D910
:1011A800C5C085D319F4BFD3ABD9C0C0E334A0E020
:1011B800FA0719F4B8D3ACD9B9C0ED34A0E0FA07EE
:1011C80019F4B1D3AFD9B2C0E435A0E0FA0719F4E5
:1011D800AAD3B2D9ABC0EE35A0E0FA0719F4A3D36D
:1011E800B3D9A4C06CD319F49ED3B6D99FC073D316
:1011F80019F499D3B9D99AC072D319F494D3BCD934
:1012080095C0EE30A0E0FA0719F48DD3BDD98EC091
:10121800E831A0E0FA0719F486D3BED987C0E633CF
:10122800A0E0FA0719F47FD3BFD980C0E934A0E061
:10123800FA0719F478D3C0D979C0EC30A0E0FA07DE
:1012480019F471D3C1D972C0E330A0E0FA0729F4C8
:1012580070D36FD36ED3EBD869C0E132A0E0FA0740
:1012680029F467D366D365D3FBD860C0ED35A0E019
:10127800FA0729F45ED35DD35CD30BD957C0E530A8
:10128800A0E0FA0731F455D346D29CDAACD2E5BDDA
:101298004DC0E931A0E0FA0731F44BD33CD2A6DACD
:1012A800A2D2E5BD43C0ED32A0E0FA0731F441D344
:1012B80032D2ABDA98D2E5BD39C009D331F439D38B
:1012C8002AD2B7DA90D2E5BD31C0EF35A0E0FA07EF
:1012D80031F42FD320D2BFDA86D2E5BD27C0E8305B
:1012E800A0E0FA0721F425D309D2A2D91FC0EC3116
:1012F800A0E0FA0721F41DD301D2ADD917C0E0331D
:10130800A0E0FA0721F415D3F9D1B8D90FC0EE340B
:10131800A0E0FA0721F40DD3F1D1C4D907C0E23611
:10132800A0E0FA0719F405D3E9D103DA67D209F086
:101338005BC0E7E1E03009F057C063D209F054C060
:1013480066D209F051C060D209F04EC0E3E4E03043
:1013580009F04AC0EDE4E03009F046C0E4E5E030C9
:1013680009F042C0EEE5E03009F03EC053D209F082
:101378003BC062D2C9F5ECE2E030B1F5EEE0E03016
:1013880099F5E8E1E03081F5E6E3E03069F5E9E474
:10139800E03051F557D241F5E3E0E03029F5E1E2DC
:1013A800E03011F5EDE5E030F9F4E5E0E030E1F4A6
:1013B800E9E1E030C9F4EDE2E030B1F437D2A1F46C
:1013C800EFE5E03089F4E8E0E03071F4ECE1E0309A
:1013D80059F4E0E3E03041F4EEE4E03029F4E2E6E9
:1013E800E03011F4E0E001C0E1E032D211F444242D
:1013F80055242C96089514D36AD19ED294F00C8368
:101408001D839ED2A0D29FD29ED211D89CD29BD2AD
:101418009AD226D898D297D296D23BD80456104062
:10142800ECCF03D32896089591D286D2BCF188D206
:1014380065D164D139D862D161D140D85FD15ED14C
:1014480047D85CD15BD14CD859D158D151D856D155
:1014580055D156D853D152D15BD850D14FD162D83B
:101468004DD14CD169D84AD149D16ED847D146D14E
:1014780073D844D143D178D841D140D17DD83ED119
:101488003DD182D83BD13AD187D838D137D18CD801
:1014980035D134D191D804561040C7CF41C056D267
:1014A8004BD23CF04DD22AD129D18ED804561040C7
:1014B800F7CF36C04BD20A30E0E01E079CF040D28E
:1014C8001DD11CD1B5D81AD119D1C5D817D116D16B
:1014D800D5D814D113D1E6D811D110D12AD90A50B0
:1014E8001040E9CF1DC032D20038E0E01E07C4F03A
:1014F80027D204D103D166D901D100D177D9FED042
:10150800FDD083D9FBD0FAD094D9F8D0F7D0A3D99D
:101518006AD1E5BDD801E2E0F0E05FD28F01E4CF07
:1015280084D226960895E0916001F091610160915E
:10153800620170916301ADE6BEE486EC91E41AD2D3
:10154800EE59F8486F4F7F4FE0936001F0936101C7
:101558006093620170936301E62FF72FFF77089578
:10156800E2E0E8BB0895EA81FB81FA93EA93F2D1BD
:10157800E0E0E8BBE881F981FA93EA93EBC1E4E0A3
:10158800E8BB0895E8E0E8BB0895E6E0E8BB089505
:10159800ECE0E8BB0895EAE0E8BB0895EEE0E8BBBC
:1015A8000895EFE0E8BBE881F981FA93EA93D2C1A4
:1015B800EDE0E8BBE881F981FA93EA93CBC1EBE06F
:1015C800E8BBE881F981FA93EA93C4C1E7E0E8BB94
:1015D800E881F981FA93EA93BDC1EFE0E8BB089589
:1015E800E0E0E8BBE881F981FA93EA93B3C1E881C6
:1015F800F981FA93EA93AEC1E8BBF9CFE1E0FCCFF9
:101608000DD200E010E020E030E0E1EAEFBDE1E0DB
:10161800EEBD00E010E00895EC81FD810E171F0774
:1016280008952F5F3F4F08953BBD2ABDEAE0F0E0E3
:10163800FA93EA938FC10F5F1F4F089521503040EE
:10164800089539BD28BDEAE0F0E0FA93EA9382C133
:10165800E5D100E010E020E030E0E1E6E5BD00E0A3
:1016680010E00895F901E3BDEAE0F0E0FA93EA93A7
:1016780071C13BBD2ABD0895D1D100E010E020E042
:1016880030E0E1EAEFBDE1E0EEBDE1E6E5BD00E016
:1016980010E0089539BD28BDE5CFC0D120E030E085
:1016A80001E010E0089521E030E00895EE81FF8127
:1016B800E217F30708951A930A934CD1E0E0E8BBC8
:1016C800EC81FD81E01BF10BFA93EA9343C10C8195
:1016D8001D8108950230E0E01E0708950150104072
:1016E80008959CD120E030E0F2CF9AD101E010E0DB
:1016F8000895EE81FF81E017F1070895EC81FD81DF
:10170800FA93EA93089501E010E00895EC81FD81D1
:10171800E017F1070895EA81FB81FA93EA930895A7
:10172800E0E0E8BB08957AD120E030E056CFC19AD6
:101738001A930A930FD1C198EC81FD81E01BF10B3C
:10174800FA93EA9307C1C29A1A930A9303D1C298EB
:10175800EC81FD81E01BF10BFA93EA93FBC0C39A7D
:101768001A930A93F7D0C398EC81FD81E01BF10B23
:10177800FA93EA93EFC0C19AC29A1A930A93EAD0ED
:10178800C198C298EC81FD81E01BF10BFA93EA93B2
:10179800E1C0C29AC39A1A930A93DCD0C298C3983C
:1017A800EC81FD81E01BF10BFA93EA93D3C0C19A57
:1017B800C39A1A930A93CED0C198C398EC81FD813D
:1017C800E01BF10BFA93EA93C5C02AD100E010E0C0
:1017D8009ACFFDD4A0CF03D59ECF09D59CCF0FD5E6
:1017E8009ACF15D598CFE0E0EFBDEEBD08959BDE0A
:1017F800DF01E4E6F0E0F6D02F010895E7E0E030FD
:101808000895EBE1E0300895E9E3E0300895EFE270
:10181800E0300895E7E5E0300895E1E1E03008952B
:10182800E5E3E0300895EAE5E0300895EBE4E030E0
:101838000895E2E1E0300895E1E6E0300895E0E25D
:10184800E0300895ECE0E0300895EBE5E0300895ED
:10185800D201F0E0EA17FB070895F201E730A0E0B3
:10186800FA070895E1E0F0E0FA93EA930895E0E9D1
:10187800F1E0FA93EA930895E2E3F0E0FA93EA9349
:10188800EFEFF0E0FA93EA930DCCEB31A0E0FA0722
:101898000895E8ECF0E0FA93EA930895EEE1F0E0B9
:1018A800FA93EA93E0E8F0E0FA93EA93FBCBE933A2
:1018B800A0E0FA070895EF32A0E0FA070895E735A7
:1018C800A0E0FA070895E131A0E0FA070895EB34A3
:1018D800A0E0FA070895E136A0E0FA070895EC328F
:1018E800A0E0FA070895E2E3F0E0FA93EA93E2CD84
:1018F800EFEFF0E0FA93EA93F6CDE3E0F0E0FA9345
:10190800EA930895ECEBF2E0FA93EA930895FA93D8
:10191800EA930895ECE2F1E0FACFEFEFF0E0F7CFC9
:10192800E2E3F0E0F4CFEA85FB85F1DFEE81FF81A9
:10193800EECFEA85FB85EBCF0436E0E01E0708957D
:101948000A831B830895EE81FF81E1CF69D00A8164
:101958001B810895E991F991309639F084EC99E06A
:101968000197F1F7A8953197C9F70895E095F09593
:10197800319608957A9F702D6B9F700DF89F700DAA
:10198800E99F700D6A9F602D710DFB9F600D711DA1
:10199800E89F600D711D8827FA9FF02D610D781F53
:1019A800EB9FF00D611D781FEA9FE02DF10D681F78
:1019B800781F08950024112490E1AA0FBB1F001C72
:1019C800111C0E1A1F0A18F40E0E1F1E01C0A1606A
:1019D8009A9599F7FD01D001089512D0EBDF0EF426
:1019E800C5DF0895E894B7FF04C0A095B095119697
:1019F8006894F7FDBBDFDEDFFD010EF4B7DF089565
:101A0800E894F7FF02C0B2DF6894B7FF06C0A0955C
:101A1800B095119600F8039400FA08953A932A9322
:101A28001A930A9308953B812A81198108810895A0
:00000001FF
